:1000000002308A002C2A0000250803197428AD004C
:10001000290803197428AD07031815287F30AD028D
:10002000031C74280319742819288130AD0703189C
:1000300074282D08F700F801F901FA012608B1002B
:10004000B1172708B0002808AF001830AD00AE0186
:100050002F1C42282C08FA07031C3428F90A031D18
:100060003428F80A0319AE172B08F907031C3B289C
:10007000F80A0319AE172A08A700A7172708F807D8
:100080000318AE17AE0DF80CF90CFA0CB10CB00C4D
:10009000AF0C0310AD0B27280130F70703187428A5
:1000A000F81B5928B10DFA0DF90DF80DF7030319D6
:1000B0007428B11F6A28FA0A031D6A28F90A031D69
:1000C0006A28F80A031D6A28F80CF90CFA0CF70ADA
:1000D000031974282608AE002A08AE06AE1F72283F
:1000E000F8177828F8137828F701F801F901FA01D0
:1000F000612A8E30F7002508F7022608F900270844
:10010000F800F917F708031990280310F908031DE0
:100110008C28F80803199028F90CF80CF70B85289F
:10012000A61F9728F809F909F80A0319F90A6A2A93
:1001300026308400831300080319AB280630F8002A
:10014000F701F70BA128F80BA0287B30F700F70B7D
:10015000A728800B9E2808002608AD002A08AD06B7
:10016000AD1FB72803110310A61B0314EA282608A5
:10017000AD002908AE002508AE020319C528AD1F41
:10018000EA280308013A8300EA282A08AE00260874
:10019000AE020319D128AD1FEA280308013A8300F3
:1001A000EA282B08AE002708AE020319DD28AD1F90
:1001B000EA280308013A8300EA282C08AE00280840
:1001C000AE020319E928AD1FEA280308013A8300AB
:1001D000EA280310080080308318AA06AF01B00196
:1001E0002608AE002A08AE0625080319DB29AD0053
:1001F000F70029080319E429AD0203198029031C1B
:100200003E292A08B300B3172B08B2002C08B1000E
:10021000B0010310B30CB20CB10CB00CAD0B08293B
:10022000AE1F15292F14F8292F102D102F16283046
:10023000840083130D2A2F12AE1B28292D1C33296D
:10024000B30CB20CB10CB00CF70A0319F329332923
:10025000B31B36290310B00DB10DB20DB30DF7036A
:100260000319F32928292F17A0292F132608AE00D8
:10027000AE1F3C29B317EC29B313EC292908AD00B4
:10028000F7002508AD022608B300B3172708B2000F
:100290002808B100B0010310B30CB20CB10CB00CC3
:1002A000AD0B4A29AE1F5729AF14F829AF102D10F6
:1002B000AF162C30840083130D2AAF12AE1B6A29AF
:1002C0002D1C7529B30CB20CB10CB00CF70A031934
:1002D000F3297529B31B78290310B00DB10DB20DA8
:1002E000B30DF7030319F3296A29AF17A029AF1338
:1002F0002A08AE00AE1F7E29B317EC29B313EC29F0
:100300002A08B300B3172B08B2002C08B100AE1FA7
:100310008D29B3132F15F8292F11B0012D10283076
:10032000840083130D2AAE1BB6292608AE002D1CAF
:10033000A029B30CB20CB10CB00CF70A0319F329C5
:10034000B01FB129B10A031DB129B20A031DB12999
:10035000B30A031DB129B30CB20CB10CF70A03198F
:10036000F3292F1B3529AF1B7729D5298030B306F8
:10037000B31FBE29F8292A08AE00CB292608AE00F3
:10038000B308031DCB29B208031DCB29B108031DF7
:10039000CB29F701EC29B31BD5290310B00DB10D02
:1003A000B20DB30DF70BCB29F329AE1FD929B31723
:1003B000EC29B313EC292908F7002A08B3002B080D
:1003C000B2002C08B100EC292508F7002608B3007C
:1003D0002708B2002808B1003308F8003208F900F5
:1003E0003108FA002B2AF701F801F901FA012B2A4A
:1003F000B001B109B209B309B009B00A031D062A58
:10040000B10A031D062AB20A0319B30A2F181429C8
:10041000AF1856292F198C29BB290008B107031CD6
:10042000172AB20A031D172AB30A03192D148403CD
:100430000008B207031C1F2AB30A03192D148403F2
:100440000008801F803AB30703182D142F1A1B29A8
:10045000AF1A5D299329080003081F398300CD30A6
:10046000A300CC30A2004C30A1007B30A0000730AC
:100470009F008313FF30831685000030860007300D
:1004800083129F008316050885001030F700F70BD4
:10049000472A000083121F080C1383169F010630A1
:1004A000831286002308A8002208A7002108A600BE
:1004B0002008A500AC01AB014830AA008430A90097
:1004C00004287A08A8007908A7007808A600770809
:1004D000A50079287808A40086172408A60098208B
:1004E00086132408323CA500A60098200518A52AEA
:1004F0002308A8002208A7002108A6002008A500BC
:100500006630AC00AB00AA007E30A900AC20031816
:100510008B2A031DA52A83102308A8002208A70000
:100520002108A6002008A5000A30AC00D730AB0097
:100530002330AA007830A900EB207A08A3007908BC
:10054000A2007808A1007708A0008518D42ACD3031
:10055000A800CC30A7004C30A6007B30A5002308B3
:10056000AC002208AB002108AA002008A900AC209A
:10057000031CD42A83142308A8002208A7002108FA
:10058000A6002008A5000A30AC00D730AB0023300D
:10059000AA007830A900EB207A08A3007908A2000D
:1005A0007808A1007708A000EC30A8005130A7001F
:1005B0003830A6007B30A5002308AC002208AB0031
:1005C0002108AA002008A900AC200318E92A031D6D
:1005D000002B2308A8002208A7002108A600200855
:1005E000A500CD30AC00CC30AB004C30AA007B3045
:1005F000A900AC200318FE2A031D002B063086003C
:100600005C30A8008F30A7004230A6007C30A500E7
:100610002308AC002208AB002108AA002008A9008A
:10062000AC200318152B031D2C2B2308A80022082F
:10063000A7002108A6002008A500CD30AC00CC30D2
:10064000AB004C30AA007C30A900AC2003182A2B48
:10065000031D2C2B5B308600E130A8007A30A70008
:100660001430A6007D30A5002308AC002208AB00A2
:100670002108AA002008A900AC200318412B031D63
:10068000582B2308A8002208A7002108A60020084C
:10069000A5009A30AC009930AB001930AA007D302B
:1006A000A900AC200318562B031D582B4F30860091
:1006B0001430A800AE30A7004730A6007D30A5005A
:1006C0002308AC002208AB002108AA002008A900DA
:1006D000AC2003186D2B031D842B2308A8002208CF
:1006E000A7002108A6002008A500CD30AC00CC3022
:1006F000AB004C30AA007D30A900AC200318822B3F
:10070000031D842B663086004830A800E130A70026
:100710007A30A6007D30A5002308AC002208AB008B
:100720002108AA002008A900AC200318992B031D5A
:10073000AD2B2308A8002208A7002108A600200846
:10074000A500AC01AB01AA017E30A900AC200318C2
:10075000AB2B031DAD2B6D3086003D30A8000A3059
:10076000A7001730A6007E30A5002308AC002208A1
:10077000AB002108AA002008A900AC200318C22B56
:10078000031DD92B2308A8002208A7002108A600D2
:100790002008A5009A30AC009930AB001930AA00AF
:1007A0007E30A900AC200318D72B031DD92B7D3038
:1007B0008600D730A800A330A7003030A6007E30D6
:1007C000A5002308AC002208AB002108AA002008DD
:1007D000A900AC200318EE2B031D032C2308A8004E
:1007E0002208A7002108A6002008A5003330AC008D
:1007F000AB00AA007E30A900AC200318012C031D19
:10080000032C073086007130A8003D30A7004A3025
:10081000A6007E30A5002308AC002208AB0021080A
:10082000AA002008A900AC200318182C031D2F2CA7
:100830002308A8002208A7002108A6002008A50078
:10084000CD30AC00CC30AB004C30AA007E30A900DB
:10085000AC2003182D2C031D2F2C7F3086000A306E
:10086000A800D730A7006330A6007E30A50023087B
:10087000AC002208AB002108AA002008A900AC2087
:100880000318442C031D592C2308A8002208A70094
:100890002108A6002008A5006630AC00AB00AA0025
:1008A0007E30A900AC200318572C031D592C67304B
:0608B0008600522A6300DD
:02400E002A3F47
:00000001FF
;PIC16F628A
;CRC=BB01  CREATED="06-ene.-20 00:29"
