:1000000002308A002C2A0000263084008313000866
:10001000031917280630F800F701F70B0D28F80B25
:100020000C287B30F700F70B1328800B0A280800F8
:10003000250803198828AD00290803198828AD0769
:10004000031829287F30AD02031C8828031988284B
:100050002D288130AD07031888282D08F700F801F6
:10006000F901FA012608B100B1172708B0002808E5
:10007000AF001830AD00AE012F1C56282C08FA072F
:10008000031C4828F90A031D4828F80A0319AE176B
:100090002B08F907031C4F28F80A0319AE172A0882
:1000A000A700A7172708F8070318AE17AE0DF80C1E
:1000B000F90CFA0CB10CB00CAF0C0310AD0B3B28D3
:1000C0000130F70703188828F81B6D28B10DFA0DC9
:1000D000F90DF80DF70303198828B11F7E28FA0AD5
:1000E000031D7E28F90A031D7E28F80A031D7E28B9
:1000F000F80CF90CFA0CF70A031988282608AE0048
:100100002A08AE06AE1F8628F8178C28F8138C280C
:10011000F701F801F901FA01952A8E30F700250858
:10012000F7022608F9002708F800F917F70803195D
:10013000A4280310F908031DA028F8080319A4280F
:10014000F90CF80CF70B9928A61FAB28F809F90948
:10015000F80A0319F90A9E2A2608AD002A08AD06F6
:10016000AD1FB72803110310A61B0314EA282608A5
:10017000AD002908AE002508AE020319C528AD1F41
:10018000EA280308013A8300EA282A08AE00260874
:10019000AE020319D128AD1FEA280308013A8300F3
:1001A000EA282B08AE002708AE020319DD28AD1F90
:1001B000EA280308013A8300EA282C08AE00280840
:1001C000AE020319E928AD1FEA280308013A8300AB
:1001D000EA280310080080308318AA06AF01B00196
:1001E0002608AE002A08AE0625080319DB29AD0053
:1001F000F70029080319E429AD0203198029031C1B
:100200003E292A08B300B3172B08B2002C08B1000E
:10021000B0010310B30CB20CB10CB00CAD0B08293B
:10022000AE1F15292F14F8292F102D102F16283046
:10023000840083130D2A2F12AE1B28292D1C33296D
:10024000B30CB20CB10CB00CF70A0319F329332923
:10025000B31B36290310B00DB10DB20DB30DF7036A
:100260000319F32928292F17A0292F132608AE00D8
:10027000AE1F3C29B317EC29B313EC292908AD00B4
:10028000F7002508AD022608B300B3172708B2000F
:100290002808B100B0010310B30CB20CB10CB00CC3
:1002A000AD0B4A29AE1F5729AF14F829AF102D10F6
:1002B000AF162C30840083130D2AAF12AE1B6A29AF
:1002C0002D1C7529B30CB20CB10CB00CF70A031934
:1002D000F3297529B31B78290310B00DB10DB20DA8
:1002E000B30DF7030319F3296A29AF17A029AF1338
:1002F0002A08AE00AE1F7E29B317EC29B313EC29F0
:100300002A08B300B3172B08B2002C08B100AE1FA7
:100310008D29B3132F15F8292F11B0012D10283076
:10032000840083130D2AAE1BB6292608AE002D1CAF
:10033000A029B30CB20CB10CB00CF70A0319F329C5
:10034000B01FB129B10A031DB129B20A031DB12999
:10035000B30A031DB129B30CB20CB10CF70A03198F
:10036000F3292F1B3529AF1B7729D5298030B306F8
:10037000B31FBE29F8292A08AE00CB292608AE00F3
:10038000B308031DCB29B208031DCB29B108031DF7
:10039000CB29F701EC29B31BD5290310B00DB10D02
:1003A000B20DB30DF70BCB29F329AE1FD929B31723
:1003B000EC29B313EC292908F7002A08B3002B080D
:1003C000B2002C08B100EC292508F7002608B3007C
:1003D0002708B2002808B1003308F8003208F900F5
:1003E0003108FA002B2AF701F801F901FA012B2A4A
:1003F000B001B109B209B309B009B00A031D062A58
:10040000B10A031D062AB20A0319B30A2F181429C8
:10041000AF1856292F198C29BB290008B107031CD6
:10042000172AB20A031D172AB30A03192D148403CD
:100430000008B207031C1F2AB30A03192D148403F2
:100440000008801F803AB30703182D142F1A1B29A8
:10045000AF1A5D299329080003081F398300CD30A6
:10046000A300CC30A2004C30A1007B30A0000730AC
:100470009F008313FF30831685000030860007300D
:1004800083129F008316050885001030F700F70BD4
:10049000472A000083121F080C1383169F015B304C
:1004A0008312860086170230A500FA30A6000420C9
:1004B000A50B552A86130230A500FA30A6000420A9
:1004C000A50B5D2A0630860086170230A500FA309B
:1004D000A6000420A50B672A86130230A500FA3077
:1004E000A6000420A50B6F2A3F3086008617023035
:1004F000A500FA30A6000420A50B792A8613023045
:10050000A500FA30A6000420A50B812A2308A80024
:100510002208A7002108A6002008A500AC01AB0115
:100520004830AA008430A90018287A08A800790861
:10053000A7007808A6007708A5008D287808A400F1
:1005400086172408A600042086132408323CA50040
:10055000A60004200518D92A2308A8002208A7000D
:100560002108A6002008A5006630AC00AB00AA0058
:100570007E30A900AC200318BF2A031DD92A83109E
:100580002308A8002208A7002108A6002008A5002B
:100590000A30AC00D730AB002330AA007830A90075
:1005A000EB207A08A3007908A2007808A100770858
:1005B000A00085180A2BCD30A800CC30A7004C3005
:1005C000A6007B30A5002308AC002208AB00210860
:1005D000AA002008A900AC200318F02A031D0A2B4A
:1005E00083142308A8002208A7002108A6002008D9
:1005F000A5000A30AC00D730AB002330AA00783019
:10060000A900EB207A08A3007908A2007808A100CD
:100610007708A000EC30A8005130A7003830A600C1
:100620007B30A5002308AC002208AB002108AA00FB
:100630002008A900AC2003181F2B031D362B23080C
:10064000A8002208A7002108A6002008A500CD3098
:10065000AC00CC30AB004C30AA007B30A900AC2001
:100660000318342B031D362B063086005C30A8009F
:100670008F30A7004230A6007C30A5002308AC00D4
:100680002208AB002108AA002008A900AC2003180A
:100690004B2B031D622B2308A8002208A70021086A
:1006A000A6002008A500CD30AC00CC30AB004C300B
:1006B000AA007C30A900AC200318602B031D622B1C
:1006C0005B308600E130A8007A30A7001430A60025
:1006D0007D30A5002308AC002208AB002108AA0049
:1006E0002008A900AC200318772B031D8E2B2308AC
:1006F000A8002208A7002108A6002008A5009A301B
:10070000AC009930AB001930AA007D30A900AC20B4
:1007100003188C2B031D8E2B4F3086001430A8003D
:10072000AE30A7004730A6007D30A5002308AC00FE
:100730002208AB002108AA002008A900AC20031859
:10074000A32B031DBA2B2308A8002208A700210809
:10075000A6002008A500CD30AC00CC30AB004C305A
:10076000AA007D30A900AC200318B82B031DBA2BBA
:10077000663086004830A800E130A7007A30A60035
:100780007D30A5002308AC002208AB002108AA0098
:100790002008A900AC200318CF2B031DE32B23084E
:1007A000A8002208A7002108A6002008A500AC0187
:1007B000AB01AA017E30A900AC200318E12B031D78
:1007C000E32B6D3086003D30A8000A30A7001730BB
:1007D000A6007E30A5002308AC002208AB0021084B
:1007E000AA002008A900AC200318F82B031D0F2C29
:1007F0002308A8002208A7002108A6002008A500B9
:100800009A30AC009930AB001930AA007E30A900B4
:10081000AC2003180D2C031D0F2C7D308600D73023
:10082000A800A330A7003030A6007E30A500230822
:10083000AC002208AB002108AA002008A900AC20C7
:100840000318242C031D392C2308A8002208A70014
:100850002108A6002008A5003330AC00AB00AA0098
:100860007E30A900AC200318372C031D392C07302B
:1008700086007130A8003D30A7004A30A6007E30C7
:10088000A5002308AC002208AB002108AA0020081C
:10089000A900AC2003184E2C031D652C2308A800CA
:1008A0002208A7002108A6002008A500CD30AC0032
:1008B000CC30AB004C30AA007E30A900AC2003182D
:1008C000632C031D652C7F3086000A30A800D730CA
:1008D000A7006330A6007E30A5002308AC002208E4
:1008E000AB002108AA002008A900AC2003187A2C2C
:1008F000031D8F2C2308A8002208A7002108A600AA
:100900002008A5006630AC00AB00AA007E30A9002C
:10091000AC2003188D2C031D8F2C67308600862A8F
:02092000630072
:02400E002A3F47
:00000001FF
;PIC16F628A
;CRC=805B  CREATED="08-ene.-20 11:14"
