:1000000002308A002D2A0000250803197528AD004A
:10001000290803197528AD07031C0F2816287F30FF
:10002000AD02031C7528031975281A288130AD0705
:10003000031875282D08F700F801F901FA012608C0
:10004000B100B1172708B0002808AF001830AD0084
:10005000AE012F1C43282C08FA07031C3528F90A87
:10006000031D3528F80A0319AE172B08F907031CDE
:100070003C28F80A0319AE172A08A700A717270873
:10008000F8070318AE17AE0DF80CF90CFA0CB10C0A
:10009000B00CAF0C0310AD0B28280130F707031884
:1000A0007528F81B5A28B10DFA0DF90DF80DF70354
:1000B00003197528B11F6B28FA0A031D6B28F90A6A
:1000C000031D6B28F80A031D6B28F80CF90CFA0CB9
:1000D000F70A031975282608AE002A08AE06AE1FD7
:1000E0007328F8177928F8137928F701F801F9012E
:1000F000FA01622A8E30F7002508F7022608F90077
:100100002708F800F917F708031991280310F908D0
:10011000031D8D28F80803199128F90CF80CF70B2A
:100120008628A61F9828F809F909F80A0319F90A78
:100130006B2A26308400831300080319AC2806308C
:10014000F800F701F70BA228F80BA1287B30F70085
:10015000F70BA828800B9F2808002608AD002A0866
:10016000AD06AD1FB82803110310A61B0314EB281E
:100170002608AD002908AE002508AE020319C628DE
:10018000AD1FEB280308013A8300EB282A08AE00D4
:100190002608AE020319D228AD1FEB280308013A46
:1001A0008300EB282B08AE002708AE020319DE28D7
:1001B000AD1FEB280308013A8300EB282C08AE00A2
:1001C0002808AE020319EA28AD1FEB280308013AFC
:1001D0008300EB280310080080308318AA06AF01C3
:1001E000B0012608AE002A08AE0625080319DC294E
:1001F000AD00F70029080319E529AD02031981298B
:10020000031C3F292A08B300B3172B08B2002C089F
:10021000B100B0010310B30CB20CB10CB00CAD0BBB
:100220000929AE1F16292F14F9292F102D102F166A
:100230002830840083130E2A2F12AE1B29292D1C6F
:100240003429B30CB20CB10CB00CF70A0319F42921
:100250003429B31B37290310B00DB10DB20DB30D06
:10026000F7030319F42929292F17A1292F13260889
:10027000AE00AE1F3D29B317ED29B313ED292908B0
:10028000AD00F7002508AD022608B300B317270814
:10029000B2002808B100B0010310B30CB20CB10CCD
:1002A000B00CAD0B4B29AE1F5829AF14F929AF1074
:1002B0002D10AF162C30840083130E2AAF12AE1B04
:1002C0006B292D1C7629B30CB20CB10CB00CF70ABB
:1002D0000319F4297629B31B79290310B00DB10D48
:1002E000B20DB30DF7030319F4296B29AF17A12938
:1002F000AF132A08AE00AE1F7F29B317ED29B31341
:10030000ED292A08B300B3172B08B2002C08B1005E
:10031000AE1F8E29B3132F15F9292F11B0012D10FF
:100320002830840083130E2AAE1BB7292608AE009E
:100330002D1CA129B30CB20CB10CB00CF70A031997
:10034000F429B01FB229B10A031DB229B20A031D54
:10035000B229B30A031DB229B30CB20CB10CF70ACF
:100360000319F4292F1B3629AF1B7829D629803091
:10037000B306B31FBF29F9292A08AE00CC292608E5
:10038000AE00B308031DCC29B208031DCC29B10867
:10039000031DCC29F701ED29B31BD6290310B00D9D
:1003A000B10DB20DB30DF70BCC29F429AE1FDA292C
:1003B000B317ED29B313ED292908F7002A08B30074
:1003C0002B08B2002C08B100ED292508F7002608FB
:1003D000B3002708B2002808B1003308F80032083B
:1003E000F9003108FA002C2AF701F801F901FA01A5
:1003F0002C2AB001B109B209B309B009B00A031D32
:10040000072AB10A031D072AB20A0319B30A2F18D3
:100410001529AF1857292F198D29BC290008B107B4
:10042000031C182AB20A031D182AB30A03192D1433
:1004300084030008B207031C202AB30A03192D14F1
:1004400084030008801F803AB30703182D142F1A65
:100450001C29AF1A5E299429080003081F3983005C
:10046000CD30A300CC30A2004C30A1007B30A000E6
:1004700007309F008313FF3083168500003086000D
:10048000073083129F008316050885001030F7009F
:10049000F70B482A000083121F080C1383169F01D4
:1004A0000630831286002308A8002208A70021082E
:1004B000A6002008A500AC01AB014830AA0084309A
:1004C000A90004287A08A8007908A7007808A600DF
:1004D0007708A5007A287808A40086172408A600C3
:1004E000992086132408323CA500A60099200518FF
:1004F000A62A2308A8002208A7002108A600200891
:10050000A5006630AC00AB00AA007E30A900AD208B
:1005100003188C2A031DA62A83102308A80022088A
:10052000A7002108A6002008A5000A30AC00D7309B
:10053000AB002330AA007830A900EC207A08A30091
:100540007908A2007808A1007708A0008518D72AAA
:10055000CD30A800CC30A7004C30A6007B30A500E1
:100560002308AC002208AB002108AA002008A9003B
:10057000AD200318BD2A031DD72A83142308A80021
:100580002208A7002108A6002008A5000A30AC0018
:10059000D730AB002330AA007830A900EC207A08CD
:1005A000A3007908A2007808A1007708A000EC3029
:1005B000A8005130A7003830A6007B30A5002308E2
:1005C000AC002208AB002108AA002008A900AD2039
:1005D0000318EC2A031D032B2308A8002208A700F8
:1005E0002108A6002008A500CD30AC00CC30AB001F
:1005F0004C30AA007B30A900AD200318012B031D4D
:10060000032B063086005C30A8008F30A7004230F4
:10061000A6007C30A5002308AC002208AB0021080E
:10062000AA002008A900AD200318182B031D2F2BAA
:100630002308A8002208A7002108A6002008A5007A
:10064000CD30AC00CC30AB004C30AA007C30A900DF
:10065000AD2003182D2B031D2F2B5B308600E130BE
:10066000A8007A30A7001430A6007D30A50023082A
:10067000AC002208AB002108AA002008A900AD2088
:100680000318442B031D5B2B2308A8002208A70096
:100690002108A6002008A5009A30AC009930AB00D4
:1006A0001930AA007D30A900AD200318592B031D75
:1006B0005B2B4F3086001430A800AE30A7004730C7
:1006C000A6007D30A5002308AC002208AB0021085D
:1006D000AA002008A900AD200318702B031D872B4A
:1006E0002308A8002208A7002108A6002008A500CA
:1006F000CD30AC00CC30AB004C30AA007D30A9002E
:10070000AD200318852B031D872B663086004830EB
:10071000A800E130A7007A30A6007D30A5002308AC
:10072000AC002208AB002108AA002008A900AD20D7
:1007300003189C2B031DB02B2308A8002208A70038
:100740002108A6002008A500AC01AB01AA017E305B
:10075000A900AD200318AE2B031DB02B6D30860011
:100760003D30A8000A30A7001730A6007E30A50053
:100770002308AC002208AB002108AA002008A90029
:10078000AD200318C52B031DDC2B2308A80022086D
:10079000A7002108A6002008A5009A30AC009930D7
:1007A000AB001930AA007E30A900AD200318DA2B67
:1007B000031DDC2B7D308600D730A800A330A700B6
:1007C0003030A6007E30A5002308AC002208AB0024
:1007D0002108AA002008A900AD200318F12B031D51
:1007E000062C2308A8002208A7002108A60020083C
:1007F000A5003330AC00AB00AA007E30A900AD20CC
:100800000318042C031D062C073086007130A80045
:100810003D30A7004A30A6007E30A5002308AC007A
:100820002208AB002108AA002008A900AD20031867
:100830001B2C031D322C2308A8002208A700210826
:10084000A6002008A500CD30AC00CC30AB004C3069
:10085000AA007E30A900AD200318302C031D322CD5
:100860007F3086000A30A800D730A7006330A6008A
:100870007E30A5002308AC002208AB002108AA00A6
:100880002008A900AD200318472C031D5C2C230869
:10089000A8002208A7002108A6002008A5006630AD
:1008A000AC00AB00AA007E30A900AD2003185A2C82
:0C08B000031D5C2C67308600532A630097
:02400E002A3F47
:00000001FF
;PIC16F628A
;CRC=6A39  CREATED="07-ene.-20 18:42"
